{
    "result": [
        {
            "memo":"from asilink successed",
            "hex": "01000000015fc25563b34e455eccd09ee48486d58bf52bc9b29c661d94705102868aec3d01010000006a47304402205ba90b5213e7f937f8a5e26bff1f879400e8059a847f383a46b0ca2e3f9548bf0220386671150d700f7b6441f73ab0fbdc73043a1aafad4b4a7213676c19a7ce7d80012103f72302518005f64a396491c2df9f4aeaa9e05c7cf3ea095a2c431615155d1446ffffffff02000000000000000017c215633c6e19bdc52f8d76baaaa5adc963b09a11a8509c0c00000000000000000000000044a9059cbb0000000000000000000000661743c23467045cde4b199a29568dabdb9733a7390000000000000000000000000000000000000000000000000000000000000008c07e4e3b000000001a76a9156619fd2d2fd1db189c075ff25800f7b98ff3205e5ac5ac0c000000000000000000000000008096980000000000",
            "txid": "31971e75488c6f246fac75150e875ddfbe8e073e3ef4eb2160bcaf653c6dbcbf",
            "hash": "",
            "size": "",
            "vsize": "",
            "version": 1,
            "locktime": 0,
            "vin": [
                {
                    "txid": "5fc25563b34e455eccd09ee48486d58bf52bc9b29c661d94705102868aec3d01",
                    "vout": 1,
                    "scriptSig": {
                        "asm": "304402205ba90b5213e7f937f8a5e26bff1f879400e8059a847f383a46b0ca2e3f9548bf0220386671150d700f7b6441f73ab0fbdc73043a1aafad4b4a7213676c19a7ce7d8001 03f72302518005f64a396491c2df9f4aeaa9e05c7cf3ea095a2c431615155d1446",
                        "hex": "47304402205ba90b5213e7f937f8a5e26bff1f879400e8059a847f383a46b0ca2e3f9548bf0220386671150d700f7b6441f73ab0fbdc73043a1aafad4b4a7213676c19a7ce7d80012103f72302518005f64a396491c2df9f4aeaa9e05c7cf3ea095a2c431615155d1446"
                    },
                    "sequence": 4294967295
                }
            ],
            "vout": [
                {
                    "value": 0,
                    "n": 0,
                    "scriptPubKey": {
                        "asm": "OP_CALL 633c6e19bdc52f8d76baaaa5adc963b09a11a8509c",
                        "hex": "c215633c6e19bdc52f8d76baaaa5adc963b09a11a8509c",
                        "type": "call",
                        "addresses": [
                            "0x633c6e19bdc52f8d76baaaa5adc963b09a11a8509c"
                        ]
                    },
                    "data": "a9059cbb0000000000000000000000661743c23467045cde4b199a29568dabdb9733a7390000000000000000000000000000000000000000000000000000000000000008",
                    "asset": "000000000000000000000000"
                },
                {
                    "value": 9.95,
                    "n": 1,
                    "scriptPubKey": {
                        "asm": "OP_DUP OP_HASH160 6619fd2d2fd1db189c075ff25800f7b98ff3205e5a OP_IFLAG_EQUALVERIFY OP_CHECKSIG",
                        "hex": "76a9156619fd2d2fd1db189c075ff25800f7b98ff3205e5ac5ac",
                        "reqSigs": 1,
                        "type": "pubkeyhash",
                        "addresses": [
                            "0x6619fd2d2fd1db189c075ff25800f7b98ff3205e5a"
                        ]
                    },
                    "data": "",
                    "asset": "000000000000000000000000"
                }
            ],
            "blockhash": "3a638d04297dbcc9232f9e3702f25f545c9cdb8358fd10f2a4cb7dcc4be6b591",
            "confirmations": 1,
            "time": 1569125662,
            "blocktime": 1569125662,
            "gaslimit": 160000000,
            "gasused": 334512
        },
        {
            "memo":"from signer failed",
            "hex": "010000000103bb9906496984b6d76de927c33f889c996633161196d7a7923ec326fcbb65b6010000006b483045022100fc2e0fd018717a0bc697ee9fa0e81de111db4c3aa6f9839ca1d9bd3fce0d22130220130122d5d36cce6469a69fdcf8732e61c0b4b8c6865ed3d173676a5f96d0f7c1012103f72302518005f64a396491c2df9f4aeaa9e05c7cf3ea095a2c431615155d1446ffffffff02000000000000000017c215633c6e19bdc52f8d76baaaa5adc963b09a11a8509c0c00000000000000000000000044a9059cbb0000000000000000000000661743c23467045cde4b199a29568dabdb9733a7390000000000000000000000000000000000000000000000000000000000000001c0878b3b000000001a76a9156619fd2d2fd1db189c075ff25800f7b98ff3205e5ac5ac0c000000000000000000000000000000000000000000",
            "txid": "e35306919261e3badc6f538dcbdad52c50eb46914a492a8e70441d8af1084b77",
            "hash": "",
            "size": "",
            "vsize": "",
            "version": 1,
            "locktime": 0,
            "vin": [
                {
                    "txid": "03bb9906496984b6d76de927c33f889c996633161196d7a7923ec326fcbb65b6",
                    "vout": 1,
                    "scriptSig": {
                        "asm": "3045022100fc2e0fd018717a0bc697ee9fa0e81de111db4c3aa6f9839ca1d9bd3fce0d22130220130122d5d36cce6469a69fdcf8732e61c0b4b8c6865ed3d173676a5f96d0f7c101 03f72302518005f64a396491c2df9f4aeaa9e05c7cf3ea095a2c431615155d1446",
                        "hex": "483045022100fc2e0fd018717a0bc697ee9fa0e81de111db4c3aa6f9839ca1d9bd3fce0d22130220130122d5d36cce6469a69fdcf8732e61c0b4b8c6865ed3d173676a5f96d0f7c1012103f72302518005f64a396491c2df9f4aeaa9e05c7cf3ea095a2c431615155d1446"
                    },
                    "sequence": 4294967295
                }
            ],
            "vout": [
                {
                    "value": 0,
                    "n": 0,
                    "scriptPubKey": {
                        "asm": "OP_CALL 633c6e19bdc52f8d76baaaa5adc963b09a11a8509c",
                        "hex": "c215633c6e19bdc52f8d76baaaa5adc963b09a11a8509c",
                        "type": "call",
                        "addresses": [
                            "0x633c6e19bdc52f8d76baaaa5adc963b09a11a8509c"
                        ]
                    },
                    "data": "a9059cbb0000000000000000000000661743c23467045cde4b199a29568dabdb9733a7390000000000000000000000000000000000000000000000000000000000000001",
                    "asset": "000000000000000000000000"
                },
                {
                    "value": 9.99,
                    "n": 1,
                    "scriptPubKey": {
                        "asm": "OP_DUP OP_HASH160 6619fd2d2fd1db189c075ff25800f7b98ff3205e5a OP_IFLAG_EQUALVERIFY OP_CHECKSIG",
                        "hex": "76a9156619fd2d2fd1db189c075ff25800f7b98ff3205e5ac5ac",
                        "reqSigs": 1,
                        "type": "pubkeyhash",
                        "addresses": [
                            "0x6619fd2d2fd1db189c075ff25800f7b98ff3205e5a"
                        ]
                    },
                    "data": "",
                    "asset": "000000000000000000000000"
                }
            ],
            "blockhash": "852b572fc574ef70ef42df69379e15b8cd0c501d2f242b435a83673939c98710",
            "confirmations": 9,
            "time": 1569125547,
            "blocktime": 1569125547,
            "gaslimit": 160000000,
            "gasused": 20223
        },
        {
            "hex": "0100000001e212549b399be3e173193995ab21ac811253bb5a0139fbe8aab1b475953a8f5e010000006b483045022100bc707efa1ce503d805f8eea34ed706d091afccec36d8f04efc044f1612faa637022057e376edd91ce088fbbf1fbf9601f43fc0db9664c590869b0fd0676df4f01d8c012103f72302518005f64a396491c2df9f4aeaa9e05c7cf3ea095a2c431615155d1446ffffffff02000000000000000017c215633c6e19bdc52f8d76baaaa5adc963b09a11a8509c0c00000000000000000000000044a9059cbb0000000000000000000000661743c23467045cde4b199a29568dabdb9733a739000000000000000000000000000000000000000000000000000000000000000240036d3b000000001a76a9156619fd2d2fd1db189c075ff25800f7b98ff3205e5ac5ac0c000000000000000000000000008096980000000000",
            "txid": "5fc25563b34e455eccd09ee48486d58bf52bc9b29c661d94705102868aec3d01",
            "hash": "",
            "size": "",
            "vsize": "",
            "version": 1,
            "locktime": 0,
            "vin": [
                {
                    "txid": "e212549b399be3e173193995ab21ac811253bb5a0139fbe8aab1b475953a8f5e",
                    "vout": 1,
                    "scriptSig": {
                        "asm": "3045022100bc707efa1ce503d805f8eea34ed706d091afccec36d8f04efc044f1612faa637022057e376edd91ce088fbbf1fbf9601f43fc0db9664c590869b0fd0676df4f01d8c01 03f72302518005f64a396491c2df9f4aeaa9e05c7cf3ea095a2c431615155d1446",
                        "hex": "483045022100bc707efa1ce503d805f8eea34ed706d091afccec36d8f04efc044f1612faa637022057e376edd91ce088fbbf1fbf9601f43fc0db9664c590869b0fd0676df4f01d8c012103f72302518005f64a396491c2df9f4aeaa9e05c7cf3ea095a2c431615155d1446"
                    },
                    "sequence": 4294967295
                }
            ],
            "vout": [
                {
                    "value": 0,
                    "n": 0,
                    "scriptPubKey": {
                        "asm": "OP_CALL 633c6e19bdc52f8d76baaaa5adc963b09a11a8509c",
                        "hex": "c215633c6e19bdc52f8d76baaaa5adc963b09a11a8509c",
                        "type": "call",
                        "addresses": [
                            "0x633c6e19bdc52f8d76baaaa5adc963b09a11a8509c"
                        ]
                    },
                    "data": "a9059cbb0000000000000000000000661743c23467045cde4b199a29568dabdb9733a7390000000000000000000000000000000000000000000000000000000000000002",
                    "asset": "000000000000000000000000"
                },
                {
                    "value": 9.97,
                    "n": 1,
                    "scriptPubKey": {
                        "asm": "OP_DUP OP_HASH160 6619fd2d2fd1db189c075ff25800f7b98ff3205e5a OP_IFLAG_EQUALVERIFY OP_CHECKSIG",
                        "hex": "76a9156619fd2d2fd1db189c075ff25800f7b98ff3205e5ac5ac",
                        "reqSigs": 1,
                        "type": "pubkeyhash",
                        "addresses": [
                            "0x6619fd2d2fd1db189c075ff25800f7b98ff3205e5a"
                        ]
                    },
                    "data": "",
                    "asset": "000000000000000000000000"
                }
            ],
            "blockhash": "1a7a4cbf558228109cbfe150e0a4ce91bd676169f4abf9349c5eb66c9796c82b",
            "confirmations": 174,
            "time": 1569123192,
            "blocktime": 1569123192,
            "gaslimit": 160000000,
            "gasused": 27057
        }
    ],
    "err": null
}